{
  "transactions": [
    {
      "hash": "0x2466099b3fe3c84313c3ca41fc80886cc670b64cd8cce6a523878120aa00e093",
      "transactionType": "CALL",
      "contractName": null,
      "contractAddress": "0x158a895F317F304fEE044705B35d55E18943f0D9",
      "function": "diamondCut((address,uint8,bytes4[])[],address,bytes)",
      "arguments": [
        "[(0x5CFF28ceD6627eF6E3f648af74307A77fA0A8941, 0, [0xcdffacc6, 0x52ef6b2c, 0xadfca15e, 0x7a0ed627, 0x01ffc9a7]), (0x921035b20696a660D8B1781c0Ed5D373A0B346EB, 0, [0x8da5cb5b, 0xf2fde38b]), (0xB0a37245a19251063C590c5e8A7642A74BEaF36D, 0, [0x8e9f10b0, 0xcf329569, 0x8da60c00, 0xe8cb2ef1, 0x582e510e, 0x31880bc4, 0xba0ed894, 0xc2c70e05, 0xad88b370, 0x9fcede43, 0xd164569d, 0x0a71f83b, 0x0a9254e4])]",
        "0x0000000000000000000000000000000000000000",
        "0x"
      ],
      "rpc": "https://eth-goerli.g.alchemy.com/v2/OuvaIxhcqNJbhUD5Mv8hePFiyE4D84yD",
      "transaction": {
        "type": "0x02",
        "from": "0xa771e1625dd4faa2ff0a41fa119eb9644c9a46c8",
        "to": "0x158a895f317f304fee044705b35d55e18943f0d9",
        "gas": "0x12a253",
        "value": "0x0",
        "data": "0x1f931c1c0000000000000000000000000000000000000000000000000000000000000060000000000000000000000000000000000000000000000000000000000000000000000000000000000000000000000000000000000000000000000000000004e000000000000000000000000000000000000000000000000000000000000000030000000000000000000000000000000000000000000000000000000000000060000000000000000000000000000000000000000000000000000000000000018000000000000000000000000000000000000000000000000000000000000002400000000000000000000000005cff28ced6627ef6e3f648af74307a77fa0a8941000000000000000000000000000000000000000000000000000000000000000000000000000000000000000000000000000000000000000000000000000000600000000000000000000000000000000000000000000000000000000000000005cdffacc60000000000000000000000000000000000000000000000000000000052ef6b2c00000000000000000000000000000000000000000000000000000000adfca15e000000000000000000000000000000000000000000000000000000007a0ed6270000000000000000000000000000000000000000000000000000000001ffc9a700000000000000000000000000000000000000000000000000000000000000000000000000000000921035b20696a660d8b1781c0ed5d373a0b346eb0000000000000000000000000000000000000000000000000000000000000000000000000000000000000000000000000000000000000000000000000000006000000000000000000000000000000000000000000000000000000000000000028da5cb5b00000000000000000000000000000000000000000000000000000000f2fde38b00000000000000000000000000000000000000000000000000000000000000000000000000000000b0a37245a19251063c590c5e8a7642a74beaf36d00000000000000000000000000000000000000000000000000000000000000000000000000000000000000000000000000000000000000000000000000000060000000000000000000000000000000000000000000000000000000000000000d8e9f10b000000000000000000000000000000000000000000000000000000000cf329569000000000000000000000000000000000000000000000000000000008da60c0000000000000000000000000000000000000000000000000000000000e8cb2ef100000000000000000000000000000000000000000000000000000000582e510e0000000000000000000000000000000000000000000000000000000031880bc400000000000000000000000000000000000000000000000000000000ba0ed89400000000000000000000000000000000000000000000000000000000c2c70e0500000000000000000000000000000000000000000000000000000000ad88b370000000000000000000000000000000000000000000000000000000009fcede4300000000000000000000000000000000000000000000000000000000d164569d000000000000000000000000000000000000000000000000000000000a71f83b000000000000000000000000000000000000000000000000000000000a9254e4000000000000000000000000000000000000000000000000000000000000000000000000000000000000000000000000000000000000000000000000",
        "nonce": "0x87",
        "accessList": []
      },
      "additionalContracts": [],
      "isFixedGasLimit": false
    }
  ],
  "receipts": [],
  "libraries": [],
  "pending": [
    "0x2466099b3fe3c84313c3ca41fc80886cc670b64cd8cce6a523878120aa00e093"
  ],
  "path": "/home/idogwu_chinonso/Desktop/SmartContracts/test/broadcast/deployNdAddFacest.s.sol/5/run-latest.json",
  "returns": {},
  "timestamp": 1679699503,
  "chain": 5,
  "multi": false,
  "commit": "0fcdfa4"
}